{
  "transactions": [
    {
      "hash": "0xde337b51e1bd3222573eb3a214710c8aec722f6233409dedee354f709095ea4e",
      "transactionType": "CREATE",
      "contractName": "StargateTransfer",
      "contractAddress": "0x0a11b9af979654b3fd531f2658f512e23c6ccb61",
      "function": null,
      "arguments": [
        "0xa2dfFdDc372C6aeC3a8e79aAfa3953e8Bc956D63"
      ],
      "transaction": {
        "from": "0x07f3c053aa0a2b23a7cc669824190f3493b4e328",
        "gas": "0xd6731",
        "value": "0x0",
        "input": "0x60a060405234801561001057600080fd5b50604051610be7380380610be783398101604081905261002f916100c0565b338061005557604051631e4fbdf760e01b81526000600482015260240160405180910390fd5b61005e81610070565b506001600160a01b03166080526100f0565b600080546001600160a01b038381166001600160a01b0319831681178455604051919092169283917f8be0079c531659141344cd1fd0a4f28419497f9722a3daafe3b4186f6b6457e09190a35050565b6000602082840312156100d257600080fd5b81516001600160a01b03811681146100e957600080fd5b9392505050565b608051610ac761012060003960008181610135015281816102260152818161037201526104680152610ac76000f3fe60806040526004361061007b5760003560e01c8063a9e56f3c1161004e578063a9e56f3c14610123578063b0f26f2c14610157578063e086e5ec1461016a578063f2fde38b1461017f57600080fd5b80633af483c414610080578063715018a6146100ba5780638da5cb5b146100d15780639e281a9814610103575b600080fd5b34801561008c57600080fd5b506100a061009b3660046107fd565b61019f565b604080519283526020830191909152015b60405180910390f35b3480156100c657600080fd5b506100cf6102af565b005b3480156100dd57600080fd5b506000546001600160a01b03165b6040516001600160a01b0390911681526020016100b1565b34801561010f57600080fd5b506100cf61011e366004610830565b6102c3565b34801561012f57600080fd5b506100eb7f000000000000000000000000000000000000000000000000000000000000000081565b6100cf61016536600461085a565b6102e3565b34801561017657600080fd5b506100cf6104ea565b34801561018b57600080fd5b506100cf61019a3660046108c4565b610521565b6000806000604051806060016040528062030d408152602001600081526020016040518060200160405280600081525081525090506000846040516020016101ff919060609190911b6bffffffffffffffffffffffff1916815260140190565b60408051601f1981840301815290829052630a51236960e01b825291506001600160a01b037f00000000000000000000000000000000000000000000000000000000000000001690630a5123699061026290899060019086908890600401610960565b6040805180830381865afa15801561027e573d6000803e3d6000fd5b505050506040513d601f19601f820116820180604052508101906102a291906109b5565b9097909650945050505050565b6102b7610561565b6102c1600061058e565b565b6102cb610561565b6102df6001600160a01b03831633836105de565b5050565b6040516323b872dd60e01b8152336004820152306024820152604481018490526001600160a01b038816906323b872dd906064016020604051808303816000875af1158015610336573d6000803e3d6000fd5b505050506040513d601f19601f8201168201806040525081019061035a91906109d9565b5060405163095ea7b360e01b81526001600160a01b037f0000000000000000000000000000000000000000000000000000000000000000811660048301526024820185905288169063095ea7b3906044016020604051808303816000875af11580156103ca573d6000803e3d6000fd5b505050506040513d601f19601f820116820180604052508101906103ee91906109d9565b506040805160608101825262030d4081526000602080830182905283518082018552828152838501529251919290916104419186910160609190911b6bffffffffffffffffffffffff1916815260140190565b60408051601f19818403018152908290526327efc43f60e21b825291506001600160a01b037f00000000000000000000000000000000000000000000000000000000000000001690639fbf10fc9034906104ad908c908c908c9033908d908c908c908c906004016109fb565b6000604051808303818588803b1580156104c657600080fd5b505af11580156104da573d6000803e3d6000fd5b5050505050505050505050505050565b6104f2610561565b60405133904780156108fc02916000818181858888f1935050505015801561051e573d6000803e3d6000fd5b50565b610529610561565b6001600160a01b03811661055857604051631e4fbdf760e01b8152600060048201526024015b60405180910390fd5b61051e8161058e565b6000546001600160a01b031633146102c15760405163118cdaa760e01b815233600482015260240161054f565b600080546001600160a01b038381166001600160a01b0319831681178455604051919092169283917f8be0079c531659141344cd1fd0a4f28419497f9722a3daafe3b4186f6b6457e09190a35050565b604080516001600160a01b038416602482015260448082018490528251808303909101815260649091019091526020810180516001600160e01b031663a9059cbb60e01b179052610630908490610635565b505050565b600061064a6001600160a01b03841683610698565b9050805160001415801561066f57508080602001905181019061066d91906109d9565b155b1561063057604051635274afe760e01b81526001600160a01b038416600482015260240161054f565b60606106a6838360006106ad565b9392505050565b6060814710156106d25760405163cd78605960e01b815230600482015260240161054f565b600080856001600160a01b031684866040516106ee9190610a75565b60006040518083038185875af1925050503d806000811461072b576040519150601f19603f3d011682016040523d82523d6000602084013e610730565b606091505b509150915061074086838361074a565b9695505050505050565b60608261075f5761075a826107a6565b6106a6565b815115801561077657506001600160a01b0384163b155b1561079f57604051639996b31560e01b81526001600160a01b038516600482015260240161054f565b50806106a6565b8051156107b65780518082602001fd5b604051630a12f52160e11b815260040160405180910390fd5b803561ffff811681146107e157600080fd5b919050565b80356001600160a01b03811681146107e157600080fd5b6000806040838503121561081057600080fd5b610819836107cf565b9150610827602084016107e6565b90509250929050565b6000806040838503121561084357600080fd5b61084c836107e6565b946020939093013593505050565b600080600080600080600060e0888a03121561087557600080fd5b61087e886107e6565b965061088c602089016107cf565b95506040880135945060608801359350608088013592506108af60a089016107e6565b915060c0880135905092959891949750929550565b6000602082840312156108d657600080fd5b6106a6826107e6565b60005b838110156108fa5781810151838201526020016108e2565b50506000910152565b6000815180845261091b8160208601602086016108df565b601f01601f19169290920160200192915050565b805182526020810151602083015260006040820151606060408501526109586060850182610903565b949350505050565b61ffff8516815260ff8416602082015260a06040820152600061098660a0830185610903565b82810380606085015260008252602081016080850152506109aa602082018561092f565b979650505050505050565b600080604083850312156109c857600080fd5b505080516020909101519092909150565b6000602082840312156109eb57600080fd5b815180151581146106a657600080fd5b600061012061ffff8b16835289602084015288604084015260018060a01b03881660608401528660808401528560a08401528060c0840152610a3f8184018661092f565b905082810360e0840152610a538185610903565b8381036101009094019390935250506000815260200198975050505050505050565b60008251610a878184602087016108df565b919091019291505056fea2646970667358221220e8b32e14e20bc4e65c0c124b731b5e1226d1299defbb1adcadac4975159466aa64736f6c63430008190033000000000000000000000000a2dffddc372c6aec3a8e79aafa3953e8bc956d63",
        "nonce": "0x3",
        "chainId": "0xaa37dc"
      },
      "additionalContracts": [],
      "isFixedGasLimit": false
    },
    {
      "hash": "0x8ac5fef893b76193ab32cce3d87b10a1d5b609a34a7e54c89392ceb6b5d92dc4",
      "transactionType": "CALL",
      "contractName": null,
      "contractAddress": "0x488327236b65c61a6c083e8d811a4e0d3d1d4268",
      "function": "approve(address,uint256)",
      "arguments": [
        "0x0a11b9AF979654b3FD531F2658F512e23c6CCb61",
        "115792089237316195423570985008687907853269984665640564039457584007913129639935"
      ],
      "transaction": {
        "from": "0x07f3c053aa0a2b23a7cc669824190f3493b4e328",
        "to": "0x488327236b65c61a6c083e8d811a4e0d3d1d4268",
        "gas": "0x1098c",
        "value": "0x0",
        "input": "0x095ea7b30000000000000000000000000a11b9af979654b3fd531f2658f512e23c6ccb61ffffffffffffffffffffffffffffffffffffffffffffffffffffffffffffffff",
        "nonce": "0x4",
        "chainId": "0xaa37dc"
      },
      "additionalContracts": [],
      "isFixedGasLimit": false
    },
    {
      "hash": "0x1bb54f95eaae3b6aa60c8a958cecd63a37c3e924e72ab7b754d2267e82cceb9b",
      "transactionType": "CALL",
      "contractName": "StargateTransfer",
      "contractAddress": "0x0a11b9af979654b3fd531f2658f512e23c6ccb61",
      "function": "transferToken(address,uint16,uint256,uint256,uint256,address,uint256)",
      "arguments": [
        "0x488327236B65C61A6c083e8d811a4E0D3d1D4268",
        "10231",
        "1",
        "1",
        "1000000",
        "0x07F3c053Aa0a2b23A7cC669824190f3493b4e328",
        "995000"
      ],
      "transaction": {
        "from": "0x07f3c053aa0a2b23a7cc669824190f3493b4e328",
        "to": "0x0a11b9af979654b3fd531f2658f512e23c6ccb61",
        "gas": "0x83fca",
        "value": "0x38d7ea4c68000",
        "input": "0xb0f26f2c000000000000000000000000488327236b65c61a6c083e8d811a4e0d3d1d426800000000000000000000000000000000000000000000000000000000000027f70000000000000000000000000000000000000000000000000000000000000001000000000000000000000000000000000000000000000000000000000000000100000000000000000000000000000000000000000000000000000000000f424000000000000000000000000007f3c053aa0a2b23a7cc669824190f3493b4e32800000000000000000000000000000000000000000000000000000000000f2eb8",
        "nonce": "0x5",
        "chainId": "0xaa37dc"
      },
      "additionalContracts": [],
      "isFixedGasLimit": false
    }
  ],
  "receipts": [
    {
      "status": "0x1",
      "cumulativeGasUsed": "0x21d0dd",
      "logs": [
        {
          "address": "0x0a11b9af979654b3fd531f2658f512e23c6ccb61",
          "topics": [
            "0x8be0079c531659141344cd1fd0a4f28419497f9722a3daafe3b4186f6b6457e0",
            "0x0000000000000000000000000000000000000000000000000000000000000000",
            "0x00000000000000000000000007f3c053aa0a2b23a7cc669824190f3493b4e328"
          ],
          "data": "0x",
          "blockHash": "0x2abd174099f3850780fa3a94d9272ef998721267a5f9a530faf5064af87c2ee4",
          "blockNumber": "0xffe9bb",
          "transactionHash": "0xde337b51e1bd3222573eb3a214710c8aec722f6233409dedee354f709095ea4e",
          "transactionIndex": "0x2",
          "logIndex": "0x24",
          "removed": false
        }
      ],
      "logsBloom": "0x00000000000000000000000000000000000000000000000000800000000000000000000000000000000000000000000000000000000000000000000000000000000000000000000000000000000000000001000000000000000000000000000000000200020000000000000000000800000000000000000200000010000000400000000000000000000000000000000000000000000000000000000000000000000000000000000000000000000000000000000000000000000000000000000000000000000000000000000000100000000000000000000000000000000020000000000000000000000000000000000000080000000000000000000000020000",
      "type": "0x2",
      "transactionHash": "0xde337b51e1bd3222573eb3a214710c8aec722f6233409dedee354f709095ea4e",
      "transactionIndex": "0x2",
      "blockHash": "0x2abd174099f3850780fa3a94d9272ef998721267a5f9a530faf5064af87c2ee4",
      "blockNumber": "0xffe9bb",
      "gasUsed": "0xa5023",
      "effectiveGasPrice": "0xf6b05",
      "from": "0x07f3c053aa0a2b23a7cc669824190f3493b4e328",
      "to": null,
      "contractAddress": "0x0a11b9af979654b3fd531f2658f512e23c6ccb61",
      "l1BaseFeeScalar": "0x1db0",
      "l1BlobBaseFee": "0x25aa2502a52",
      "l1BlobBaseFeeScalar": "0xd2730",
      "l1Fee": "0xec6c6e59806a3",
      "l1GasPrice": "0x180835f745",
      "l1GasUsed": "0x73dc"
    },
    {
      "status": "0x1",
      "cumulativeGasUsed": "0x228670",
      "logs": [
        {
          "address": "0x488327236b65c61a6c083e8d811a4e0d3d1d4268",
          "topics": [
            "0x8c5be1e5ebec7d5bd14f71427d1e84f3dd0314c0f7b2291e5b200ac8c7c3b925",
            "0x00000000000000000000000007f3c053aa0a2b23a7cc669824190f3493b4e328",
            "0x0000000000000000000000000a11b9af979654b3fd531f2658f512e23c6ccb61"
          ],
          "data": "0xffffffffffffffffffffffffffffffffffffffffffffffffffffffffffffffff",
          "blockHash": "0x2abd174099f3850780fa3a94d9272ef998721267a5f9a530faf5064af87c2ee4",
          "blockNumber": "0xffe9bb",
          "transactionHash": "0x8ac5fef893b76193ab32cce3d87b10a1d5b609a34a7e54c89392ceb6b5d92dc4",
          "transactionIndex": "0x3",
          "logIndex": "0x25",
          "removed": false
        }
      ],
      "logsBloom": "0x00000000000000000000000000000000000000000000000000000000002000000000000000000000000000000000000000000000000000000000000000200000000000000000000000000000000000000000000000000000000000000000000000000200000000000000000000000000000000000000800000000000000000000000000000000000000000000000000000000000000000000000000000100000020000000000000000000000000000000000000000000000000000000000400000000000000000000000000000100000000000000000010000000000000000000010000000000000000000000000000000000000000000000000000000021000",
      "type": "0x2",
      "transactionHash": "0x8ac5fef893b76193ab32cce3d87b10a1d5b609a34a7e54c89392ceb6b5d92dc4",
      "transactionIndex": "0x3",
      "blockHash": "0x2abd174099f3850780fa3a94d9272ef998721267a5f9a530faf5064af87c2ee4",
      "blockNumber": "0xffe9bb",
      "gasUsed": "0xb593",
      "effectiveGasPrice": "0xf6b05",
      "from": "0x07f3c053aa0a2b23a7cc669824190f3493b4e328",
      "to": "0x488327236b65c61a6c083e8d811a4e0d3d1d4268",
      "contractAddress": null,
      "l1BaseFeeScalar": "0x1db0",
      "l1BlobBaseFee": "0x25aa2502a52",
      "l1BlobBaseFeeScalar": "0xd2730",
      "l1Fee": "0xcc0f48ad3202",
      "l1GasPrice": "0x180835f745",
      "l1GasUsed": "0x640"
    },
    {
      "status": "0x1",
      "cumulativeGasUsed": "0x287f56",
      "logs": [
        {
          "address": "0x488327236b65c61a6c083e8d811a4e0d3d1d4268",
          "topics": [
            "0xddf252ad1be2c89b69c2b068fc378daa952ba7f163c4a11628f55a4df523b3ef",
            "0x00000000000000000000000007f3c053aa0a2b23a7cc669824190f3493b4e328",
            "0x0000000000000000000000000a11b9af979654b3fd531f2658f512e23c6ccb61"
          ],
          "data": "0x00000000000000000000000000000000000000000000000000000000000f4240",
          "blockHash": "0x2abd174099f3850780fa3a94d9272ef998721267a5f9a530faf5064af87c2ee4",
          "blockNumber": "0xffe9bb",
          "transactionHash": "0x1bb54f95eaae3b6aa60c8a958cecd63a37c3e924e72ab7b754d2267e82cceb9b",
          "transactionIndex": "0x4",
          "logIndex": "0x26",
          "removed": false
        },
        {
          "address": "0x488327236b65c61a6c083e8d811a4e0d3d1d4268",
          "topics": [
            "0x8c5be1e5ebec7d5bd14f71427d1e84f3dd0314c0f7b2291e5b200ac8c7c3b925",
            "0x00000000000000000000000007f3c053aa0a2b23a7cc669824190f3493b4e328",
            "0x0000000000000000000000000a11b9af979654b3fd531f2658f512e23c6ccb61"
          ],
          "data": "0xfffffffffffffffffffffffffffffffffffffffffffffffffffffffffff0bdbf",
          "blockHash": "0x2abd174099f3850780fa3a94d9272ef998721267a5f9a530faf5064af87c2ee4",
          "blockNumber": "0xffe9bb",
          "transactionHash": "0x1bb54f95eaae3b6aa60c8a958cecd63a37c3e924e72ab7b754d2267e82cceb9b",
          "transactionIndex": "0x4",
          "logIndex": "0x27",
          "removed": false
        },
        {
          "address": "0x488327236b65c61a6c083e8d811a4e0d3d1d4268",
          "topics": [
            "0x8c5be1e5ebec7d5bd14f71427d1e84f3dd0314c0f7b2291e5b200ac8c7c3b925",
            "0x0000000000000000000000000a11b9af979654b3fd531f2658f512e23c6ccb61",
            "0x000000000000000000000000a2dffddc372c6aec3a8e79aafa3953e8bc956d63"
          ],
          "data": "0x00000000000000000000000000000000000000000000000000000000000f4240",
          "blockHash": "0x2abd174099f3850780fa3a94d9272ef998721267a5f9a530faf5064af87c2ee4",
          "blockNumber": "0xffe9bb",
          "transactionHash": "0x1bb54f95eaae3b6aa60c8a958cecd63a37c3e924e72ab7b754d2267e82cceb9b",
          "transactionIndex": "0x4",
          "logIndex": "0x28",
          "removed": false
        },
        {
          "address": "0x9cb68fe59b4c9a829e3b0810b0018409669b9861",
          "topics": [
            "0x34660fc8af304464529f48a778e03d03e4d34bcd5f9b6f0cfbf3cd238c642f7f"
          ],
          "data": "0x00000000000000000000000000000000000000000000000000000000000027f700000000000000000000000000000000000000000000000000000000000000010000000000000000000000000a11b9af979654b3fd531f2658f512e23c6ccb6100000000000000000000000000000000000000000000000000000000000f3fe80000000000000000000000000000000000000000000000000000000000000000000000000000000000000000000000000000000000000000000000000000001e00000000000000000000000000000000000000000000000000000000000001d60000000000000000000000000000000000000000000000000000000000000064",
          "blockHash": "0x2abd174099f3850780fa3a94d9272ef998721267a5f9a530faf5064af87c2ee4",
          "blockNumber": "0xffe9bb",
          "transactionHash": "0x1bb54f95eaae3b6aa60c8a958cecd63a37c3e924e72ab7b754d2267e82cceb9b",
          "transactionIndex": "0x4",
          "logIndex": "0x29",
          "removed": false
        },
        {
          "address": "0x488327236b65c61a6c083e8d811a4e0d3d1d4268",
          "topics": [
            "0xddf252ad1be2c89b69c2b068fc378daa952ba7f163c4a11628f55a4df523b3ef",
            "0x0000000000000000000000000a11b9af979654b3fd531f2658f512e23c6ccb61",
            "0x0000000000000000000000009cb68fe59b4c9a829e3b0810b0018409669b9861"
          ],
          "data": "0x00000000000000000000000000000000000000000000000000000000000f4240",
          "blockHash": "0x2abd174099f3850780fa3a94d9272ef998721267a5f9a530faf5064af87c2ee4",
          "blockNumber": "0xffe9bb",
          "transactionHash": "0x1bb54f95eaae3b6aa60c8a958cecd63a37c3e924e72ab7b754d2267e82cceb9b",
          "transactionIndex": "0x4",
          "logIndex": "0x2a",
          "removed": false
        },
        {
          "address": "0x488327236b65c61a6c083e8d811a4e0d3d1d4268",
          "topics": [
            "0x8c5be1e5ebec7d5bd14f71427d1e84f3dd0314c0f7b2291e5b200ac8c7c3b925",
            "0x0000000000000000000000000a11b9af979654b3fd531f2658f512e23c6ccb61",
            "0x000000000000000000000000a2dffddc372c6aec3a8e79aafa3953e8bc956d63"
          ],
          "data": "0x0000000000000000000000000000000000000000000000000000000000000000",
          "blockHash": "0x2abd174099f3850780fa3a94d9272ef998721267a5f9a530faf5064af87c2ee4",
          "blockNumber": "0xffe9bb",
          "transactionHash": "0x1bb54f95eaae3b6aa60c8a958cecd63a37c3e924e72ab7b754d2267e82cceb9b",
          "transactionIndex": "0x4",
          "logIndex": "0x2b",
          "removed": false
        },
        {
          "address": "0x9cb68fe59b4c9a829e3b0810b0018409669b9861",
          "topics": [
            "0x6939f93e3f21cf1362eb17155b740277de5687dae9a83a85909fd71da95944e7"
          ],
          "data": "0x00000000000000000000000000000000000000000000000000000000000027f70000000000000000000000000000000000000000000000000000000000000001000000000000000000000000000000000000000000000000000000000000000000000000000000000000000000000000000000000000000000000f288372d860",
          "blockHash": "0x2abd174099f3850780fa3a94d9272ef998721267a5f9a530faf5064af87c2ee4",
          "blockNumber": "0xffe9bb",
          "transactionHash": "0x1bb54f95eaae3b6aa60c8a958cecd63a37c3e924e72ab7b754d2267e82cceb9b",
          "transactionIndex": "0x4",
          "logIndex": "0x2c",
          "removed": false
        },
        {
          "address": "0x6ac7bdc07a0583a362f1497252872ae6c0a5f5b8",
          "topics": [
            "0xdf21c415b78ed2552cc9971249e32a053abce6087a0ae0fbf3f78db5174a3493"
          ],
          "data": "0x0000000000000000000000000000000000000000000000000000797ca0907f5e",
          "blockHash": "0x2abd174099f3850780fa3a94d9272ef998721267a5f9a530faf5064af87c2ee4",
          "blockNumber": "0xffe9bb",
          "transactionHash": "0x1bb54f95eaae3b6aa60c8a958cecd63a37c3e924e72ab7b754d2267e82cceb9b",
          "transactionIndex": "0x4",
          "logIndex": "0x2d",
          "removed": false
        },
        {
          "address": "0x35add9321507a87471a11ebd4ae4f592d531e620",
          "topics": [
            "0xb0c632f55f1e1b3b2c3d82f41ee4716bb4c00f0f5d84cdafc141581bb8757a4f"
          ],
          "data": "0x0000000000000000000000000000000000000000000000000000000000000040000000000000000000000000000000000000000000000000000000000000000200000000000000000000000000000000000000000000000000000000000000220001000000000000000000000000000000000000000000000000000000000006a338000000000000000000000000000000000000000000000000000000000000",
          "blockHash": "0x2abd174099f3850780fa3a94d9272ef998721267a5f9a530faf5064af87c2ee4",
          "blockNumber": "0xffe9bb",
          "transactionHash": "0x1bb54f95eaae3b6aa60c8a958cecd63a37c3e924e72ab7b754d2267e82cceb9b",
          "transactionIndex": "0x4",
          "logIndex": "0x2e",
          "removed": false
        },
        {
          "address": "0x45841dd1ca50265da7614fc43a361e526c0e6160",
          "topics": [
            "0x4e41ee13e03cd5e0446487b524fdc48af6acf26c074dacdbdfb6b574b42c8146"
          ],
          "data": "0x00000000000000000000000000000000000000000000000000000000000027f700000000000000000000000000000000000000000000000000000000000000020000000000000000000000000000000000000000000000000000000000000001000000000000000000000000b55a9254b467a0a52d6696cd327f4c4a37498c1a00000000000000000000000000000000000000000000000000000c9534672991",
          "blockHash": "0x2abd174099f3850780fa3a94d9272ef998721267a5f9a530faf5064af87c2ee4",
          "blockNumber": "0xffe9bb",
          "transactionHash": "0x1bb54f95eaae3b6aa60c8a958cecd63a37c3e924e72ab7b754d2267e82cceb9b",
          "transactionIndex": "0x4",
          "logIndex": "0x2f",
          "removed": false
        },
        {
          "address": "0x35add9321507a87471a11ebd4ae4f592d531e620",
          "topics": [
            "0xe9bded5f24a4168e4f3bf44e00298c993b22376aad8c58c7dda9718a54cbea82"
          ],
          "data": "0x00000000000000000000000000000000000000000000000000000000000000200000000000000000000000000000000000000000000000000000000000000254000000000000004727f8b55a9254b467a0a52d6696cd327f4c4a37498c1a27f72f4b6e5ae6728c1832e93de67141908f8aa9255b0000000000000000000000000000000000000000000000000000000000000001000000000000000000000000000000000000000000000000000000000000000100000000000000000000000000000000000000000000000000000000000000010000000000000000000000000000000000000000000000000000000000030d40000000000000000000000000000000000000000000000000000000000000000000000000000000000000000000000000000000000000000000000f288372d86000000000000000000000000000000000000000000000000000000000000f3fe8000000000000000000000000000000000000000000000000000000000000001e0000000000000000000000000000000000000000000000000000000000000000000000000000000000000000000000000000000000000000000000000000006400000000000000000000000000000000000000000000000000000000000001d600000000000000000000000000000000000000000000000000000000000f41dc00000000000000000000000000000000000000000000000000000000000001c00000000000000000000000000000000000000000000000000000000000000200000000000000000000000000000000000000000000000000000000000000001407f3c053aa0a2b23a7cc669824190f3493b4e3280000000000000000000000000000000000000000000000000000000000000000000000000000000000000000000000000000000000000000",
          "blockHash": "0x2abd174099f3850780fa3a94d9272ef998721267a5f9a530faf5064af87c2ee4",
          "blockNumber": "0xffe9bb",
          "transactionHash": "0x1bb54f95eaae3b6aa60c8a958cecd63a37c3e924e72ab7b754d2267e82cceb9b",
          "transactionIndex": "0x4",
          "logIndex": "0x30",
          "removed": false
        },
        {
          "address": "0xb55a9254b467a0a52d6696cd327f4c4a37498c1a",
          "topics": [
            "0x8d3ee0df6a4b7e82a7f20a763f1c6826e6176323e655af64f32318827d2112d4"
          ],
          "data": "0x00000000000000000000000000000000000000000000000000000000000000010000000000000000000000000000000000000000000000000000000000000047",
          "blockHash": "0x2abd174099f3850780fa3a94d9272ef998721267a5f9a530faf5064af87c2ee4",
          "blockNumber": "0xffe9bb",
          "transactionHash": "0x1bb54f95eaae3b6aa60c8a958cecd63a37c3e924e72ab7b754d2267e82cceb9b",
          "transactionIndex": "0x4",
          "logIndex": "0x31",
          "removed": false
        }
      ],
      "logsBloom": "0x0000004000000000000000000020000000004000000000002000000004200010000000000000000050000000000c000000000000000000000000000000200000005000000000000000000008000000001000000000000040000000000000000000040200000000010100000000000000000000000000c0000000001000000000000000040000000800000000000000000000000038000000000000a000100000020000004000020000000000000000000020000000040000000800000000400000001002000008000000100000100000000000400000010000000000004000021010000000000800000000002000000000000000000002000200000008021000",
      "type": "0x2",
      "transactionHash": "0x1bb54f95eaae3b6aa60c8a958cecd63a37c3e924e72ab7b754d2267e82cceb9b",
      "transactionIndex": "0x4",
      "blockHash": "0x2abd174099f3850780fa3a94d9272ef998721267a5f9a530faf5064af87c2ee4",
      "blockNumber": "0xffe9bb",
      "gasUsed": "0x5f8e6",
      "effectiveGasPrice": "0xf6b05",
      "from": "0x07f3c053aa0a2b23a7cc669824190f3493b4e328",
      "to": "0x0a11b9af979654b3fd531f2658f512e23c6ccb61",
      "contractAddress": null,
      "l1BaseFeeScalar": "0x1db0",
      "l1BlobBaseFee": "0x25aa2502a52",
      "l1BlobBaseFeeScalar": "0xd2730",
      "l1Fee": "0x11b8298ca511c",
      "l1GasPrice": "0x180835f745",
      "l1GasUsed": "0x8ae"
    }
  ],
  "libraries": [],
  "pending": [],
  "returns": {},
  "timestamp": 1725345576,
  "chain": 11155420,
  "commit": "fe34993"
}