{
  "transactions": [
    {
      "hash": "0x2fde9ba49ed68b1427eb21771496282c40b96c4c76e1da878a087b7c349a73d1",
      "transactionType": "CREATE",
      "contractName": "StargateIntegration",
      "contractAddress": "0xafc1f7222d5faec22ac4c78222f6f2a8a0a68f3b",
      "function": null,
      "arguments": null,
      "transaction": {
        "from": "0x07f3c053aa0a2b23a7cc669824190f3493b4e328",
        "gas": "0x910c2",
        "value": "0x0",
        "input": "0x6080604052348015600f57600080fd5b5061074e8061001f6000396000f3fe608060405234801561001057600080fd5b506004361061002b5760003560e01c8063d47a2e8714610030575b600080fd5b61004361003e3660046102f7565b61005b565b60405161005293929190610422565b60405180910390f35b6040805160e08101825260008082526020820181905291810182905260608082018390526080820181905260a0820181905260c082015260408051808201909152600080825260208201526040518060e001604052808763ffffffff1681526020016100cd866001600160a01b031690565b815260200186815260200160008152602001600067ffffffffffffffff8111156100f9576100f9610456565b6040519080825280601f01601f191660200182016040528015610123576020820181803683370190505b5081526040805160008082526020808301845280850192909252825191820183528082529282015251630d35b41560e01b815291935088916001600160a01b03831690630d35b4159061017a90879060040161046c565b600060405180830381865afa158015610197573d6000803e3d6000fd5b505050506040513d6000823e601f3d908101601f191682016040526101bf9190810190610510565b60208101516060880152604051633b6f743b60e01b81529093506001600160a01b0385169250633b6f743b91506101fd908790600090600401610694565b6040805180830381865afa158015610219573d6000803e3d6000fd5b505050506040513d601f19601f8201168201806040525081019061023d91906106b8565b92508260000151945060006001600160a01b0316826001600160a01b031663fc0c546a6040518163ffffffff1660e01b8152600401602060405180830381865afa15801561028f573d6000803e3d6000fd5b505050506040513d601f19601f820116820180604052508101906102b391906106d4565b6001600160a01b0316036102d35760408401516102d090866106f1565b94505b50509450945094915050565b6001600160a01b03811681146102f457600080fd5b50565b6000806000806080858703121561030d57600080fd5b8435610318816102df565b9350602085013563ffffffff8116811461033157600080fd5b9250604085013591506060850135610348816102df565b939692955090935050565b60005b8381101561036e578181015183820152602001610356565b50506000910152565b6000815180845261038f816020860160208601610353565b601f01601f19169290920160200192915050565b63ffffffff81511682526020810151602083015260408101516040830152606081015160608301526000608082015160e060808501526103e660e0850182610377565b905060a083015184820360a08601526103ff8282610377565b91505060c083015184820360c08601526104198282610377565b95945050505050565b83815260806020820152600061043b60808301856103a3565b90508251604083015260208301516060830152949350505050565b634e487b7160e01b600052604160045260246000fd5b60208152600061047f60208301846103a3565b9392505050565b6040805190810167ffffffffffffffff811182821017156104a9576104a9610456565b60405290565b604051601f8201601f1916810167ffffffffffffffff811182821017156104d8576104d8610456565b604052919050565b6000604082840312156104f257600080fd5b6104fa610486565b9050815181526020820151602082015292915050565b600080600060a0848603121561052557600080fd5b61052f85856104e0565b9250604084015167ffffffffffffffff8082111561054c57600080fd5b818601915086601f83011261056057600080fd5b81518181111561057257610572610456565b61058160208260051b016104af565b8082825260208201915060208360051b8601019250898311156105a357600080fd5b602085015b83811015610675578051858111156105bf57600080fd5b8601601f196040828e03820112156105d657600080fd5b6105de610486565b602083015181526040830151888111156105f757600080fd5b8084019350508d603f84011261060c57600080fd5b60208301518881111561062157610621610456565b610632602084601f840116016104af565b92508083528e604082860101111561064957600080fd5b61065a816020850160408701610353565b506020818101929092528552938401939190910190506105a8565b50809650505050505061068b85606086016104e0565b90509250925092565b6040815260006106a760408301856103a3565b905082151560208301529392505050565b6000604082840312156106ca57600080fd5b61047f83836104e0565b6000602082840312156106e657600080fd5b815161047f816102df565b8082018082111561071257634e487b7160e01b600052601160045260246000fd5b9291505056fea264697066735822122098293acb10d06de7942259f1593e54e0b6d41760895013dd92174ad553b48cf964736f6c63430008190033",
        "nonce": "0x9",
        "chainId": "0xaa37dc"
      },
      "additionalContracts": [],
      "isFixedGasLimit": false
    },
    {
      "hash": "0x04634f1f88f800c3ffdcf9cd35d2692a12a516c9dc0575a9432f5e671c4fcd5e",
      "transactionType": "CALL",
      "contractName": null,
      "contractAddress": "0x488327236b65c61a6c083e8d811a4e0d3d1d4268",
      "function": "approve(address,uint256)",
      "arguments": [
        "0x1E8A86EcC9dc41106d3834c6F1033D86939B1e0D",
        "1000000"
      ],
      "transaction": {
        "from": "0x07f3c053aa0a2b23a7cc669824190f3493b4e328",
        "to": "0x488327236b65c61a6c083e8d811a4e0d3d1d4268",
        "gas": "0xf8eb",
        "value": "0x0",
        "input": "0x095ea7b30000000000000000000000001e8a86ecc9dc41106d3834c6f1033d86939b1e0d00000000000000000000000000000000000000000000000000000000000f4240",
        "nonce": "0xa",
        "chainId": "0xaa37dc"
      },
      "additionalContracts": [],
      "isFixedGasLimit": false
    },
    {
      "hash": "0x71e8ef218238467fc82cf88a35c8b5d1e7a68c12bf5dc817c179da75ef35fd2b",
      "transactionType": "CALL",
      "contractName": null,
      "contractAddress": "0x1e8a86ecc9dc41106d3834c6f1033d86939b1e0d",
      "function": "sendToken((uint32,bytes32,uint256,uint256,bytes,bytes,bytes),(uint256,uint256),address)",
      "arguments": [
        "(40231, 0x00000000000000000000000007f3c053aa0a2b23a7cc669824190f3493b4e328, 1000000, 999989, 0x, 0x, 0x)",
        "(117591145566447, 0)",
        "0x07F3c053Aa0a2b23A7cC669824190f3493b4e328"
      ],
      "transaction": {
        "from": "0x07f3c053aa0a2b23a7cc669824190f3493b4e328",
        "to": "0x1e8a86ecc9dc41106d3834c6f1033d86939b1e0d",
        "gas": "0x5e90e",
        "value": "0x6af2d275d0ef",
        "input": "0xcbef2aa9000000000000000000000000000000000000000000000000000000000000008000000000000000000000000000000000000000000000000000006af2d275d0ef000000000000000000000000000000000000000000000000000000000000000000000000000000000000000007f3c053aa0a2b23a7cc669824190f3493b4e3280000000000000000000000000000000000000000000000000000000000009d2700000000000000000000000007f3c053aa0a2b23a7cc669824190f3493b4e32800000000000000000000000000000000000000000000000000000000000f424000000000000000000000000000000000000000000000000000000000000f423500000000000000000000000000000000000000000000000000000000000000e000000000000000000000000000000000000000000000000000000000000001000000000000000000000000000000000000000000000000000000000000000120000000000000000000000000000000000000000000000000000000000000000000000000000000000000000000000000000000000000000000000000000000000000000000000000000000000000000000000000000000000000000000000000",
        "nonce": "0xb",
        "chainId": "0xaa37dc"
      },
      "additionalContracts": [],
      "isFixedGasLimit": false
    }
  ],
  "receipts": [
    {
      "status": "0x1",
      "cumulativeGasUsed": "0x167d80",
      "logs": [],
      "logsBloom": "0x00000000000000000000000000000000000000000000000000000000000000000000000000000000000000000000000000000000000000000000000000000000000000000000000000000000000000000000000000000000000000000000000000000000000000000000000000000000000000000000000000000000000000000000000000000000000000000000000000000000000000000000000000000000000000000000000000000000000000000000000000000000000000000000000000000000000000000000000000000000000000000000000000000000000000000000000000000000000000000000000000000000000000000000000000000000",
      "type": "0x2",
      "transactionHash": "0x2fde9ba49ed68b1427eb21771496282c40b96c4c76e1da878a087b7c349a73d1",
      "transactionIndex": "0x4",
      "blockHash": "0x46af816a2605f6b9c40a4ec733c39c03156a6047f2a79a7b2f12a29ba98a2a04",
      "blockNumber": "0x1001500",
      "gasUsed": "0x6f9ab",
      "effectiveGasPrice": "0xf6a9d",
      "from": "0x07f3c053aa0a2b23a7cc669824190f3493b4e328",
      "to": null,
      "contractAddress": "0xafc1f7222d5faec22ac4c78222f6f2a8a0a68f3b",
      "l1BaseFeeScalar": "0x1db0",
      "l1BlobBaseFee": "0x2823160edc",
      "l1BlobBaseFeeScalar": "0xd2730",
      "l1Fee": "0xa9d7f4f8aeed",
      "l1GasPrice": "0x2b9d46bf2",
      "l1GasUsed": "0x4dcc"
    },
    {
      "status": "0x1",
      "cumulativeGasUsed": "0x1731b7",
      "logs": [
        {
          "address": "0x488327236b65c61a6c083e8d811a4e0d3d1d4268",
          "topics": [
            "0x8c5be1e5ebec7d5bd14f71427d1e84f3dd0314c0f7b2291e5b200ac8c7c3b925",
            "0x00000000000000000000000007f3c053aa0a2b23a7cc669824190f3493b4e328",
            "0x0000000000000000000000001e8a86ecc9dc41106d3834c6f1033d86939b1e0d"
          ],
          "data": "0x00000000000000000000000000000000000000000000000000000000000f4240",
          "blockHash": "0x46af816a2605f6b9c40a4ec733c39c03156a6047f2a79a7b2f12a29ba98a2a04",
          "blockNumber": "0x1001500",
          "transactionHash": "0x04634f1f88f800c3ffdcf9cd35d2692a12a516c9dc0575a9432f5e671c4fcd5e",
          "transactionIndex": "0x5",
          "logIndex": "0xa",
          "removed": false
        }
      ],
      "logsBloom": "0x00000000000000000000000000000000000000000000000000000000003000000010000000000000000000000000000000000000000000000000000000200000000000000000000000000000000000000000000000000000000000000000000000000200000000000000000000000000000000000000000000000000000000000000000000000000000000000000000000000000000000000000000000100000020000000000000000000000000000000000000000000000000000000000000000000000000000000000000000100000000000000000000000000000000000000010000020000000000000000000000000000000000000000000000000021000",
      "type": "0x2",
      "transactionHash": "0x04634f1f88f800c3ffdcf9cd35d2692a12a516c9dc0575a9432f5e671c4fcd5e",
      "transactionIndex": "0x5",
      "blockHash": "0x46af816a2605f6b9c40a4ec733c39c03156a6047f2a79a7b2f12a29ba98a2a04",
      "blockNumber": "0x1001500",
      "gasUsed": "0xb437",
      "effectiveGasPrice": "0xf6a9d",
      "from": "0x07f3c053aa0a2b23a7cc669824190f3493b4e328",
      "to": "0x488327236b65c61a6c083e8d811a4e0d3d1d4268",
      "contractAddress": null,
      "l1BaseFeeScalar": "0x1db0",
      "l1BlobBaseFee": "0x2823160edc",
      "l1BlobBaseFeeScalar": "0xd2730",
      "l1Fee": "0xda4f6099222",
      "l1GasPrice": "0x2b9d46bf2",
      "l1GasUsed": "0x640"
    },
    {
      "status": "0x1",
      "cumulativeGasUsed": "0x220d9c",
      "logs": [
        {
          "address": "0x488327236b65c61a6c083e8d811a4e0d3d1d4268",
          "topics": [
            "0xddf252ad1be2c89b69c2b068fc378daa952ba7f163c4a11628f55a4df523b3ef",
            "0x00000000000000000000000007f3c053aa0a2b23a7cc669824190f3493b4e328",
            "0x0000000000000000000000001e8a86ecc9dc41106d3834c6f1033d86939b1e0d"
          ],
          "data": "0x00000000000000000000000000000000000000000000000000000000000f4240",
          "blockHash": "0x46af816a2605f6b9c40a4ec733c39c03156a6047f2a79a7b2f12a29ba98a2a04",
          "blockNumber": "0x1001500",
          "transactionHash": "0x71e8ef218238467fc82cf88a35c8b5d1e7a68c12bf5dc817c179da75ef35fd2b",
          "transactionIndex": "0x7",
          "logIndex": "0xf",
          "removed": false
        },
        {
          "address": "0x488327236b65c61a6c083e8d811a4e0d3d1d4268",
          "topics": [
            "0x8c5be1e5ebec7d5bd14f71427d1e84f3dd0314c0f7b2291e5b200ac8c7c3b925",
            "0x00000000000000000000000007f3c053aa0a2b23a7cc669824190f3493b4e328",
            "0x0000000000000000000000001e8a86ecc9dc41106d3834c6f1033d86939b1e0d"
          ],
          "data": "0x0000000000000000000000000000000000000000000000000000000000000000",
          "blockHash": "0x46af816a2605f6b9c40a4ec733c39c03156a6047f2a79a7b2f12a29ba98a2a04",
          "blockNumber": "0x1001500",
          "transactionHash": "0x71e8ef218238467fc82cf88a35c8b5d1e7a68c12bf5dc817c179da75ef35fd2b",
          "transactionIndex": "0x7",
          "logIndex": "0x10",
          "removed": false
        },
        {
          "address": "0xb31d2cb502e25b30c651842c7c3293c51fe6d16f",
          "topics": [
            "0x61ed099e74a97a1d7f8bb0952a88ca8b7b8ebd00c126ea04671f92a81213318a"
          ],
          "data": "0x000000000000000000000000dc0d68899405673b932f0db7f8a49191491a5bcb00000000000000000000000000000000000000000000000000005e5d9e0ea75e",
          "blockHash": "0x46af816a2605f6b9c40a4ec733c39c03156a6047f2a79a7b2f12a29ba98a2a04",
          "blockNumber": "0x1001500",
          "transactionHash": "0x71e8ef218238467fc82cf88a35c8b5d1e7a68c12bf5dc817c179da75ef35fd2b",
          "transactionIndex": "0x7",
          "logIndex": "0x11",
          "removed": false
        },
        {
          "address": "0xb31d2cb502e25b30c651842c7c3293c51fe6d16f",
          "topics": [
            "0x07ea52d82345d6e838192107d8fd7123d9c2ec8e916cd0aad13fd2b60db24644"
          ],
          "data": "0x000000000000000000000000000000000000000000000000000000000000006000000000000000000000000000000000000000000000000000000000000000a000000000000000000000000000000000000000000000000000000000000000c00000000000000000000000000000000000000000000000000000000000000001000000000000000000000000d680ec569f269aa7015f7979b4f1239b5aa4582c0000000000000000000000000000000000000000000000000000000000000000000000000000000000000000000000000000000000000000000000000000000100000000000000000000000000000000000000000000000000000c9534672991",
          "blockHash": "0x46af816a2605f6b9c40a4ec733c39c03156a6047f2a79a7b2f12a29ba98a2a04",
          "blockNumber": "0x1001500",
          "transactionHash": "0x71e8ef218238467fc82cf88a35c8b5d1e7a68c12bf5dc817c179da75ef35fd2b",
          "transactionIndex": "0x7",
          "logIndex": "0x12",
          "removed": false
        },
        {
          "address": "0x6edce65403992e310a62460808c4b910d972f10f",
          "topics": [
            "0x1ab700d4ced0c005b164c0f789fd09fcbb0156d4c2041b8a3bfbcd961cd1567f"
          ],
          "data": "0x00000000000000000000000000000000000000000000000000000000000000600000000000000000000000000000000000000000000000000000000000000120000000000000000000000000b31d2cb502e25b30c651842c7c3293c51fe6d16f000000000000000000000000000000000000000000000000000000000000009c01000000000000005c00009d28000000000000000000000000c48c0736c8ae67a8c54dfb01d7ecc7190c12a04200009d27000000000000000000000000cf26a197b5353ff886919c2a2fb4c45fe233dd3f293e3155029edf98093007cccd975a69f279f50186daea2a316b3aeae1a1039a01000100000000000000000000000007f3c053aa0a2b23a7cc669824190f3493b4e32800000000000f4235000000000000000000000000000000000000000000000000000000000000000000000016000301001101000000000000000000000000000249f000000000000000000000",
          "blockHash": "0x46af816a2605f6b9c40a4ec733c39c03156a6047f2a79a7b2f12a29ba98a2a04",
          "blockNumber": "0x1001500",
          "transactionHash": "0x71e8ef218238467fc82cf88a35c8b5d1e7a68c12bf5dc817c179da75ef35fd2b",
          "transactionIndex": "0x7",
          "logIndex": "0x13",
          "removed": false
        },
        {
          "address": "0x1e8a86ecc9dc41106d3834c6f1033d86939b1e0d",
          "topics": [
            "0x85496b760a4b7f8d66384b9df21b381f5d1b1e79f229a47aaf4c232edc2fe59a",
            "0x293e3155029edf98093007cccd975a69f279f50186daea2a316b3aeae1a1039a",
            "0x00000000000000000000000007f3c053aa0a2b23a7cc669824190f3493b4e328"
          ],
          "data": "0x0000000000000000000000000000000000000000000000000000000000009d2700000000000000000000000000000000000000000000000000000000000f424000000000000000000000000000000000000000000000000000000000000f4235",
          "blockHash": "0x46af816a2605f6b9c40a4ec733c39c03156a6047f2a79a7b2f12a29ba98a2a04",
          "blockNumber": "0x1001500",
          "transactionHash": "0x71e8ef218238467fc82cf88a35c8b5d1e7a68c12bf5dc817c179da75ef35fd2b",
          "transactionIndex": "0x7",
          "logIndex": "0x14",
          "removed": false
        }
      ],
      "logsBloom": "0x00000100000000000000000000001000000000000000000000000000003000000010000000004020200000000000000000000000000000000000000000200000000002000000000000000008000000000000000000000000000000000008000000000200000000008200000000000000000000000000000000000010000000000000000000000020000000080000000000000400000000000000000000100000020000008000000000100000000000000000000000400000000440000000000000000002000000000000100080100000000000000000000000000000000008000010040020000000000080000000002000000000008000000000000000021000",
      "type": "0x2",
      "transactionHash": "0x71e8ef218238467fc82cf88a35c8b5d1e7a68c12bf5dc817c179da75ef35fd2b",
      "transactionIndex": "0x7",
      "blockHash": "0x46af816a2605f6b9c40a4ec733c39c03156a6047f2a79a7b2f12a29ba98a2a04",
      "blockNumber": "0x1001500",
      "gasUsed": "0x4476e",
      "effectiveGasPrice": "0xf6a9d",
      "from": "0x07f3c053aa0a2b23a7cc669824190f3493b4e328",
      "to": "0x1e8a86ecc9dc41106d3834c6f1033d86939b1e0d",
      "contractAddress": null,
      "l1BaseFeeScalar": "0x1db0",
      "l1BlobBaseFee": "0x2823160edc",
      "l1BlobBaseFeeScalar": "0xd2730",
      "l1Fee": "0x141920d09b6d",
      "l1GasPrice": "0x2b9d46bf2",
      "l1GasUsed": "0x934"
    }
  ],
  "libraries": [],
  "pending": [],
  "returns": {},
  "timestamp": 1725367731,
  "chain": 11155420,
  "commit": "86bff08"
}